{
  "contractName": "BalanceChecker",
  "abi": [
    {
      "payable": true,
      "stateMutability": "payable",
      "type": "fallback"
    },
    {
      "constant": true,
      "inputs": [
        {
          "name": "user",
          "type": "address"
        },
        {
          "name": "token",
          "type": "address"
        }
      ],
      "name": "tokenBalance",
      "outputs": [
        {
          "name": "",
          "type": "uint256"
        }
      ],
      "payable": false,
      "stateMutability": "view",
      "type": "function"
    },
    {
      "constant": true,
      "inputs": [
        {
          "name": "users",
          "type": "address[]"
        },
        {
          "name": "tokens",
          "type": "address[]"
        }
      ],
      "name": "balances",
      "outputs": [
        {
          "name": "",
          "type": "uint256[]"
        }
      ],
      "payable": false,
      "stateMutability": "view",
      "type": "function"
    }
  ],
  "bytecode": "0x608060405234801561001057600080fd5b506105d1806100206000396000f30060806040526004361061004c576000357c0100000000000000000000000000000000000000000000000000000000900463ffffffff1680631049334f146100e0578063f0002ea914610157575b6040517f08c379a00000000000000000000000000000000000000000000000000000000081526004018080602001828103825260278152602001807f42616c616e6365436865636b657220646f6573206e6f7420616363657074207081526020017f61796d656e74730000000000000000000000000000000000000000000000000081525060400191505060405180910390fd5b3480156100ec57600080fd5b50610141600480360381019080803573ffffffffffffffffffffffffffffffffffffffff169060200190929190803573ffffffffffffffffffffffffffffffffffffffff1690602001909291905050506101ff565b6040518082815260200191505060405180910390f35b34801561016357600080fd5b506101a86004803603810190808035906020019082018035906020019190919293919293908035906020019082018035906020019190919293919293905050506103d2565b6040518080602001828103825283818151815260200191508051906020019060200280838360005b838110156101eb5780820151818401526020810190506101d0565b505050509050019250505060405180910390f35b600080823b90506000811180156102e457508273ffffffffffffffffffffffffffffffffffffffff166370a082317c0100000000000000000000000000000000000000000000000000000000027c01000000000000000000000000000000000000000000000000000000009004856040518263ffffffff167c0100000000000000000000000000000000000000000000000000000000028152600401808273ffffffffffffffffffffffffffffffffffffffff1673ffffffffffffffffffffffffffffffffffffffff1681526020019150506000604051808303816000875af1925050505b156103c6578273ffffffffffffffffffffffffffffffffffffffff166370a08231856040518263ffffffff167c0100000000000000000000000000000000000000000000000000000000028152600401808273ffffffffffffffffffffffffffffffffffffffff1673ffffffffffffffffffffffffffffffffffffffff168152602001915050602060405180830381600087803b15801561038457600080fd5b505af1158015610398573d6000803e3d6000fd5b505050506040513d60208110156103ae57600080fd5b810190808051906020019092919050505091506103cb565b600091505b5092915050565b60608060008060008888905087879050026040519080825280602002602001820160405280156104115781602001602082028038833980820191505090505b509350600092505b8888905083101561059657600091505b868690508210156105895782878790500282019050600073ffffffffffffffffffffffffffffffffffffffff16878784818110151561046457fe5b9050602002013573ffffffffffffffffffffffffffffffffffffffff1673ffffffffffffffffffffffffffffffffffffffff1614151561051d576104fc89898581811015156104af57fe5b9050602002013573ffffffffffffffffffffffffffffffffffffffff1688888581811015156104da57fe5b9050602002013573ffffffffffffffffffffffffffffffffffffffff166101ff565b848281518110151561050a57fe5b906020019060200201818152505061057c565b888884818110151561052b57fe5b9050602002013573ffffffffffffffffffffffffffffffffffffffff1673ffffffffffffffffffffffffffffffffffffffff1631848281518110151561056d57fe5b90602001906020020181815250505b8180600101925050610429565b8280600101935050610419565b839450505050509493505050505600a165627a7a72305820074f2fa3b245d8002e122f9e33eeb290b9e20666b249d74654baa8a18b108ba40029",
  "source": "// Built off of https://github.com/DeltaBalances/DeltaBalances.github.io/blob/master/smart_contract/deltabalances.sol\npragma solidity ^0.4.21;\n\n// ERC20 contract interface\ncontract Token {\n  function balanceOf(address) public view returns (uint);\n}\n\ncontract BalanceChecker {\n  /* Fallback function, don't accept any ETH */\n  function() public payable {\n    revert(\"BalanceChecker does not accept payments\");\n  }\n\n  /*\n    Check the token balance of a wallet in a token contract\n\n    Returns the balance of the token for user. Avoids possible errors:\n      - return 0 on non-contract address \n      - returns 0 if the contract doesn't implement balanceOf\n  */\n  function tokenBalance(address user, address token) public view returns (uint) {\n    // check if token is actually a contract\n    uint256 tokenCode;\n    assembly { tokenCode := extcodesize(token) } // contract code size\n  \n    // is it a contract and does it implement balanceOf \n    if (tokenCode > 0 && token.call(bytes4(0x70a08231), user)) {  \n      return Token(token).balanceOf(user);\n    } else {\n      return 0;\n    }\n  }\n\n  /*\n    Check the token balances of a wallet for multiple tokens.\n    Pass 0x0 as a \"token\" address to get ETH balance.\n\n    Possible error throws:\n      - extremely large arrays for user and or tokens (gas cost too high) \n          \n    Returns a one-dimensional that's user.length * tokens.length long. The\n    array is ordered by all of the 0th users token balances, then the 1th\n    user, and so on.\n  */\n  function balances(address[] users, address[] tokens) external view returns (uint[]) {\n    uint[] memory addrBalances = new uint[](tokens.length * users.length);\n    \n    for(uint i = 0; i < users.length; i++) {\n      for (uint j = 0; j < tokens.length; j++) {\n        uint addrIdx = j + tokens.length * i;\n        if (tokens[j] != address(0x0)) { \n          addrBalances[addrIdx] = tokenBalance(users[i], tokens[j]);\n        } else {\n          addrBalances[addrIdx] = users[i].balance; // ETH balance    \n        }\n      }  \n    }\n  \n    return addrBalances;\n  }\n\n}",
  "sourcePath": "/Users/tadas/Development/eth-balance-checker/contracts/BalanceChecker.sol",
  "compiler": {
    "name": "solc",
    "version": "0.4.24+commit.e67f0147.Emscripten.clang"
  },
  "schemaVersion": "3.4.1",
  "updatedAt": "2021-08-05T10:43:22.637Z",
  "networkType": "ethereum",
  "devdoc": {
    "methods": {}
  },
  "userdoc": {
    "methods": {}
  }
}